{
  "_format": "hh-sol-artifact-1",
  "contractName": "Marketplace",
  "sourceName": "blockchain/backend/contracts/Marketplace.sol",
  "abi": [
    {
      "inputs": [
        {
          "internalType": "uint256",
          "name": "_feePercent",
          "type": "uint256"
        }
      ],
      "stateMutability": "nonpayable",
      "type": "constructor"
    },
    {
      "anonymous": false,
      "inputs": [
        {
          "indexed": false,
          "internalType": "uint256",
          "name": "itemId",
          "type": "uint256"
        },
        {
          "indexed": true,
          "internalType": "address",
          "name": "nft",
          "type": "address"
        },
        {
          "indexed": false,
          "internalType": "uint256",
          "name": "tokenId",
          "type": "uint256"
        },
        {
          "indexed": false,
          "internalType": "uint256",
          "name": "price",
          "type": "uint256"
        },
        {
          "indexed": true,
          "internalType": "address",
          "name": "seller",
          "type": "address"
        },
        {
          "indexed": true,
          "internalType": "address",
          "name": "buyer",
          "type": "address"
        }
      ],
      "name": "Bought",
      "type": "event"
    },
    {
      "anonymous": false,
      "inputs": [
        {
          "indexed": false,
          "internalType": "uint256",
          "name": "itemId",
          "type": "uint256"
        },
        {
          "indexed": true,
          "internalType": "address",
          "name": "nft",
          "type": "address"
        },
        {
          "indexed": false,
          "internalType": "uint256",
          "name": "tokenId",
          "type": "uint256"
        },
        {
          "indexed": false,
          "internalType": "uint256",
          "name": "price",
          "type": "uint256"
        },
        {
          "indexed": true,
          "internalType": "address",
          "name": "seller",
          "type": "address"
        }
      ],
      "name": "Offered",
      "type": "event"
    },
    {
      "anonymous": false,
      "inputs": [
        {
          "indexed": false,
          "internalType": "address",
          "name": "Id",
          "type": "address"
        },
        {
          "indexed": false,
          "internalType": "string",
          "name": "user_name",
          "type": "string"
        },
        {
          "indexed": false,
          "internalType": "string",
          "name": "user_id",
          "type": "string"
        },
        {
          "indexed": false,
          "internalType": "string",
          "name": "email",
          "type": "string"
        },
        {
          "indexed": false,
          "internalType": "string",
          "name": "phone_number",
          "type": "string"
        },
        {
          "indexed": false,
          "internalType": "string",
          "name": "gender",
          "type": "string"
        },
        {
          "indexed": false,
          "internalType": "string",
          "name": "dob",
          "type": "string"
        },
        {
          "indexed": false,
          "internalType": "string",
          "name": "pancard",
          "type": "string"
        }
      ],
      "name": "UserAdded",
      "type": "event"
    },
    {
      "inputs": [
        {
          "internalType": "address",
          "name": "_id",
          "type": "address"
        },
        {
          "internalType": "string",
          "name": "_user_name",
          "type": "string"
        },
        {
          "internalType": "string",
          "name": "_user_id",
          "type": "string"
        },
        {
          "internalType": "string",
          "name": "_email",
          "type": "string"
        },
        {
          "internalType": "string",
          "name": "_phone_number",
          "type": "string"
        },
        {
          "internalType": "string",
          "name": "_gender",
          "type": "string"
        },
        {
          "internalType": "string",
          "name": "_dob",
          "type": "string"
        },
        {
          "internalType": "string",
          "name": "_pancard",
          "type": "string"
        }
      ],
      "name": "create_User",
      "outputs": [],
      "stateMutability": "nonpayable",
      "type": "function"
    },
    {
      "inputs": [],
      "name": "feeAccount",
      "outputs": [
        {
          "internalType": "address payable",
          "name": "",
          "type": "address"
        }
      ],
      "stateMutability": "view",
      "type": "function"
    },
    {
      "inputs": [],
      "name": "feePercent",
      "outputs": [
        {
          "internalType": "uint256",
          "name": "",
          "type": "uint256"
        }
      ],
      "stateMutability": "view",
      "type": "function"
    },
    {
      "inputs": [
        {
          "internalType": "uint256",
          "name": "_itemId",
          "type": "uint256"
        }
      ],
      "name": "getTotalPrice",
      "outputs": [
        {
          "internalType": "uint256",
          "name": "",
          "type": "uint256"
        }
      ],
      "stateMutability": "view",
      "type": "function"
    },
    {
      "inputs": [],
      "name": "itemCount",
      "outputs": [
        {
          "internalType": "uint256",
          "name": "",
          "type": "uint256"
        }
      ],
      "stateMutability": "view",
      "type": "function"
    },
    {
      "inputs": [
        {
          "internalType": "uint256",
          "name": "",
          "type": "uint256"
        }
      ],
      "name": "items",
      "outputs": [
        {
          "internalType": "uint256",
          "name": "itemId",
          "type": "uint256"
        },
        {
          "internalType": "contract IERC721",
          "name": "nft",
          "type": "address"
        },
        {
          "internalType": "uint256",
          "name": "tokenId",
          "type": "uint256"
        },
        {
          "internalType": "uint256",
          "name": "price",
          "type": "uint256"
        },
        {
          "internalType": "address payable",
          "name": "seller",
          "type": "address"
        },
        {
          "internalType": "address",
          "name": "owner",
          "type": "address"
        },
        {
          "internalType": "bool",
          "name": "sold",
          "type": "bool"
        }
      ],
      "stateMutability": "view",
      "type": "function"
    },
    {
      "inputs": [
        {
          "internalType": "contract IERC721",
          "name": "_nft",
          "type": "address"
        },
        {
          "internalType": "uint256",
          "name": "_tokenId",
          "type": "uint256"
        },
        {
          "internalType": "uint256",
          "name": "_price",
          "type": "uint256"
        }
      ],
      "name": "makeItem",
      "outputs": [],
      "stateMutability": "nonpayable",
      "type": "function"
    },
    {
      "inputs": [
        {
          "internalType": "uint256",
          "name": "_itemId",
          "type": "uint256"
        }
      ],
      "name": "purchaseItem",
      "outputs": [],
      "stateMutability": "payable",
      "type": "function"
    },
    {
      "inputs": [
        {
          "internalType": "address",
          "name": "",
          "type": "address"
        }
      ],
      "name": "users",
      "outputs": [
        {
          "internalType": "address",
          "name": "Id",
          "type": "address"
        },
        {
          "internalType": "string",
          "name": "user_name",
          "type": "string"
        },
        {
          "internalType": "string",
          "name": "user_id",
          "type": "string"
        },
        {
          "internalType": "string",
          "name": "email",
          "type": "string"
        },
        {
          "internalType": "string",
          "name": "phone_number",
          "type": "string"
        },
        {
          "internalType": "string",
          "name": "gender",
          "type": "string"
        },
        {
          "internalType": "string",
          "name": "dob",
          "type": "string"
        },
        {
          "internalType": "string",
          "name": "pancard",
          "type": "string"
        }
      ],
      "stateMutability": "view",
      "type": "function"
    }
  ],
  "bytecode": "0x60c06040523480156200001157600080fd5b5060405162001e3438038062001e3483398181016040528101906200003791906200009c565b60016000819055503373ffffffffffffffffffffffffffffffffffffffff1660808173ffffffffffffffffffffffffffffffffffffffff1660601b815250508060a0818152505050620000ec565b6000815190506200009681620000d2565b92915050565b600060208284031215620000af57600080fd5b6000620000bf8482850162000085565b91505092915050565b6000819050919050565b620000dd81620000c8565b8114620000e957600080fd5b50565b60805160601c60a051611d11620001236000396000818161026a015261076101526000818161024001526109870152611d116000f3fe6080604052600436106100865760003560e01c8063bfb231d211610059578063bfb231d214610150578063ca7dd37514610193578063d38ea5bf146101d0578063ed7d743c146101ec578063fa00afc71461021557610086565b806365e17c9d1461008b5780636bfb0d01146100b65780637fd6f15c146100e1578063a87430ba1461010c575b600080fd5b34801561009757600080fd5b506100a061023e565b6040516100ad919061156f565b60405180910390f35b3480156100c257600080fd5b506100cb610262565b6040516100d89190611710565b60405180910390f35b3480156100ed57600080fd5b506100f6610268565b6040516101039190611710565b60405180910390f35b34801561011857600080fd5b50610133600480360381019061012e9190611241565b61028c565b6040516101479897969594939291906115c1565b60405180910390f35b34801561015c57600080fd5b5061017760048036038101906101729190611413565b6106ac565b60405161018a979695949392919061172b565b60405180910390f35b34801561019f57600080fd5b506101ba60048036038101906101b59190611413565b61075b565b6040516101c79190611710565b60405180910390f35b6101ea60048036038101906101e59190611413565b6107be565b005b3480156101f857600080fd5b50610213600480360381019061020e919061126a565b610bcf565b005b34801561022157600080fd5b5061023c600480360381019061023791906113c4565b610dc2565b005b7f000000000000000000000000000000000000000000000000000000000000000081565b60015481565b7f000000000000000000000000000000000000000000000000000000000000000081565b60036020528060005260406000206000915090508060000160009054906101000a900473ffffffffffffffffffffffffffffffffffffffff16908060010180546102d590611a2a565b80601f016020809104026020016040519081016040528092919081815260200182805461030190611a2a565b801561034e5780601f106103235761010080835404028352916020019161034e565b820191906000526020600020905b81548152906001019060200180831161033157829003601f168201915b50505050509080600201805461036390611a2a565b80601f016020809104026020016040519081016040528092919081815260200182805461038f90611a2a565b80156103dc5780601f106103b1576101008083540402835291602001916103dc565b820191906000526020600020905b8154815290600101906020018083116103bf57829003601f168201915b5050505050908060030180546103f190611a2a565b80601f016020809104026020016040519081016040528092919081815260200182805461041d90611a2a565b801561046a5780601f1061043f5761010080835404028352916020019161046a565b820191906000526020600020905b81548152906001019060200180831161044d57829003601f168201915b50505050509080600401805461047f90611a2a565b80601f01602080910402602001604051908101604052809291908181526020018280546104ab90611a2a565b80156104f85780601f106104cd576101008083540402835291602001916104f8565b820191906000526020600020905b8154815290600101906020018083116104db57829003601f168201915b50505050509080600501805461050d90611a2a565b80601f016020809104026020016040519081016040528092919081815260200182805461053990611a2a565b80156105865780601f1061055b57610100808354040283529160200191610586565b820191906000526020600020905b81548152906001019060200180831161056957829003601f168201915b50505050509080600601805461059b90611a2a565b80601f01602080910402602001604051908101604052809291908181526020018280546105c790611a2a565b80156106145780601f106105e957610100808354040283529160200191610614565b820191906000526020600020905b8154815290600101906020018083116105f757829003601f168201915b50505050509080600701805461062990611a2a565b80601f016020809104026020016040519081016040528092919081815260200182805461065590611a2a565b80156106a25780601f10610677576101008083540402835291602001916106a2565b820191906000526020600020905b81548152906001019060200180831161068557829003601f168201915b5050505050905088565b60026020528060005260406000206000915090508060000154908060010160009054906101000a900473ffffffffffffffffffffffffffffffffffffffff16908060020154908060030154908060040160009054906101000a900473ffffffffffffffffffffffffffffffffffffffff16908060050160009054906101000a900473ffffffffffffffffffffffffffffffffffffffff16908060050160149054906101000a900460ff16905087565b600060647f0000000000000000000000000000000000000000000000000000000000000000606461078c9190611843565b60026000858152602001908152602001600020600301546107ad91906118ca565b6107b79190611899565b9050919050565b60026000541415610804576040517f08c379a00000000000000000000000000000000000000000000000000000000081526004016107fb906116f0565b60405180910390fd5b600260008190555060006108178261075b565b9050600060026000848152602001908152602001600020905060008311801561084257506001548311155b610881576040517f08c379a0000000000000000000000000000000000000000000000000000000008152600401610878906116d0565b60405180910390fd5b813410156108c4576040517f08c379a00000000000000000000000000000000000000000000000000000000081526004016108bb906116b0565b60405180910390fd5b8060050160149054906101000a900460ff1615610916576040517f08c379a000000000000000000000000000000000000000000000000000000000815260040161090d90611670565b60405180910390fd5b8060040160009054906101000a900473ffffffffffffffffffffffffffffffffffffffff1673ffffffffffffffffffffffffffffffffffffffff166108fc82600301549081150290604051600060405180830381858888f19350505050158015610984573d6000803e3d6000fd5b507f000000000000000000000000000000000000000000000000000000000000000073ffffffffffffffffffffffffffffffffffffffff166108fc8260030154846109cf9190611924565b9081150290604051600060405180830381858888f193505050501580156109fa573d6000803e3d6000fd5b5060018160050160146101000a81548160ff021916908315150217905550338160050160006101000a81548173ffffffffffffffffffffffffffffffffffffffff021916908373ffffffffffffffffffffffffffffffffffffffff1602179055508060010160009054906101000a900473ffffffffffffffffffffffffffffffffffffffff1673ffffffffffffffffffffffffffffffffffffffff166323b872dd303384600201546040518463ffffffff1660e01b8152600401610ac09392919061158a565b600060405180830381600087803b158015610ada57600080fd5b505af1158015610aee573d6000803e3d6000fd5b505050503373ffffffffffffffffffffffffffffffffffffffff168160040160009054906101000a900473ffffffffffffffffffffffffffffffffffffffff1673ffffffffffffffffffffffffffffffffffffffff168260010160009054906101000a900473ffffffffffffffffffffffffffffffffffffffff1673ffffffffffffffffffffffffffffffffffffffff167f8b4c9c8a607d67b321582dd8461041b1dc2ceeca70c8b7f37f8e02095cf2e76d8685600201548660030154604051610bba9392919061179a565b60405180910390a45050600160008190555050565b6040518061010001604052808973ffffffffffffffffffffffffffffffffffffffff16815260200188815260200187815260200186815260200185815260200184815260200183815260200182815250600360008a73ffffffffffffffffffffffffffffffffffffffff1673ffffffffffffffffffffffffffffffffffffffff16815260200190815260200160002060008201518160000160006101000a81548173ffffffffffffffffffffffffffffffffffffffff021916908373ffffffffffffffffffffffffffffffffffffffff1602179055506020820151816001019080519060200190610cc19291906110f7565b506040820151816002019080519060200190610cde9291906110f7565b506060820151816003019080519060200190610cfb9291906110f7565b506080820151816004019080519060200190610d189291906110f7565b5060a0820151816005019080519060200190610d359291906110f7565b5060c0820151816006019080519060200190610d529291906110f7565b5060e0820151816007019080519060200190610d6f9291906110f7565b509050507fb1d210471802ea12bfd50e701ca24b683a04f269b0431ce2bdce591cde7b39128888888888888888604051610db09897969594939291906115c1565b60405180910390a15050505050505050565b60026000541415610e08576040517f08c379a0000000000000000000000000000000000000000000000000000000008152600401610dff906116f0565b60405180910390fd5b600260008190555060008111610e53576040517f08c379a0000000000000000000000000000000000000000000000000000000008152600401610e4a90611690565b60405180910390fd5b60016000815480929190610e6690611a8d565b91905055508273ffffffffffffffffffffffffffffffffffffffff166323b872dd3330856040518463ffffffff1660e01b8152600401610ea89392919061158a565b600060405180830381600087803b158015610ec257600080fd5b505af1158015610ed6573d6000803e3d6000fd5b505050506040518060e0016040528060015481526020018473ffffffffffffffffffffffffffffffffffffffff1681526020018381526020018281526020013373ffffffffffffffffffffffffffffffffffffffff1681526020013373ffffffffffffffffffffffffffffffffffffffff168152602001600015158152506002600060015481526020019081526020016000206000820151816000015560208201518160010160006101000a81548173ffffffffffffffffffffffffffffffffffffffff021916908373ffffffffffffffffffffffffffffffffffffffff160217905550604082015181600201556060820151816003015560808201518160040160006101000a81548173ffffffffffffffffffffffffffffffffffffffff021916908373ffffffffffffffffffffffffffffffffffffffff16021790555060a08201518160050160006101000a81548173ffffffffffffffffffffffffffffffffffffffff021916908373ffffffffffffffffffffffffffffffffffffffff16021790555060c08201518160050160146101000a81548160ff0219169083151502179055509050503373ffffffffffffffffffffffffffffffffffffffff168373ffffffffffffffffffffffffffffffffffffffff167f655a0cf9c8db81512be9a76dc1c5ae5380b8816ce6ad659cd61b715e2999d59a60015485856040516110e29392919061179a565b60405180910390a36001600081905550505050565b82805461110390611a2a565b90600052602060002090601f016020900481019282611125576000855561116c565b82601f1061113e57805160ff191683800117855561116c565b8280016001018555821561116c579182015b8281111561116b578251825591602001919060010190611150565b5b509050611179919061117d565b5090565b5b8082111561119657600081600090555060010161117e565b5090565b60006111ad6111a8846117f6565b6117d1565b9050828152602081018484840111156111c557600080fd5b6111d08482856119e8565b509392505050565b6000813590506111e781611c96565b92915050565b6000813590506111fc81611cad565b92915050565b600082601f83011261121357600080fd5b813561122384826020860161119a565b91505092915050565b60008135905061123b81611cc4565b92915050565b60006020828403121561125357600080fd5b6000611261848285016111d8565b91505092915050565b600080600080600080600080610100898b03121561128757600080fd5b60006112958b828c016111d8565b985050602089013567ffffffffffffffff8111156112b257600080fd5b6112be8b828c01611202565b975050604089013567ffffffffffffffff8111156112db57600080fd5b6112e78b828c01611202565b965050606089013567ffffffffffffffff81111561130457600080fd5b6113108b828c01611202565b955050608089013567ffffffffffffffff81111561132d57600080fd5b6113398b828c01611202565b94505060a089013567ffffffffffffffff81111561135657600080fd5b6113628b828c01611202565b93505060c089013567ffffffffffffffff81111561137f57600080fd5b61138b8b828c01611202565b92505060e089013567ffffffffffffffff8111156113a857600080fd5b6113b48b828c01611202565b9150509295985092959890939650565b6000806000606084860312156113d957600080fd5b60006113e7868287016111ed565b93505060206113f88682870161122c565b92505060406114098682870161122c565b9150509250925092565b60006020828403121561142557600080fd5b60006114338482850161122c565b91505092915050565b6114458161196a565b82525050565b61145481611958565b82525050565b6114638161197c565b82525050565b611472816119c4565b82525050565b600061148382611827565b61148d8185611832565b935061149d8185602086016119f7565b6114a681611b92565b840191505092915050565b60006114be601183611832565b91506114c982611ba3565b602082019050919050565b60006114e1601f83611832565b91506114ec82611bcc565b602082019050919050565b6000611504603383611832565b915061150f82611bf5565b604082019050919050565b6000611527601283611832565b915061153282611c44565b602082019050919050565b600061154a601f83611832565b915061155582611c6d565b602082019050919050565b611569816119ba565b82525050565b6000602082019050611584600083018461143c565b92915050565b600060608201905061159f600083018661144b565b6115ac602083018561144b565b6115b96040830184611560565b949350505050565b6000610100820190506115d7600083018b61144b565b81810360208301526115e9818a611478565b905081810360408301526115fd8189611478565b905081810360608301526116118188611478565b905081810360808301526116258187611478565b905081810360a08301526116398186611478565b905081810360c083015261164d8185611478565b905081810360e08301526116618184611478565b90509998505050505050505050565b60006020820190508181036000830152611689816114b1565b9050919050565b600060208201905081810360008301526116a9816114d4565b9050919050565b600060208201905081810360008301526116c9816114f7565b9050919050565b600060208201905081810360008301526116e98161151a565b9050919050565b600060208201905081810360008301526117098161153d565b9050919050565b60006020820190506117256000830184611560565b92915050565b600060e082019050611740600083018a611560565b61174d6020830189611469565b61175a6040830188611560565b6117676060830187611560565b611774608083018661143c565b61178160a083018561144b565b61178e60c083018461145a565b98975050505050505050565b60006060820190506117af6000830186611560565b6117bc6020830185611560565b6117c96040830184611560565b949350505050565b60006117db6117ec565b90506117e78282611a5c565b919050565b6000604051905090565b600067ffffffffffffffff82111561181157611810611b63565b5b61181a82611b92565b9050602081019050919050565b600081519050919050565b600082825260208201905092915050565b600061184e826119ba565b9150611859836119ba565b9250827fffffffffffffffffffffffffffffffffffffffffffffffffffffffffffffffff0382111561188e5761188d611ad6565b5b828201905092915050565b60006118a4826119ba565b91506118af836119ba565b9250826118bf576118be611b05565b5b828204905092915050565b60006118d5826119ba565b91506118e0836119ba565b9250817fffffffffffffffffffffffffffffffffffffffffffffffffffffffffffffffff048311821515161561191957611918611ad6565b5b828202905092915050565b600061192f826119ba565b915061193a836119ba565b92508282101561194d5761194c611ad6565b5b828203905092915050565b60006119638261199a565b9050919050565b60006119758261199a565b9050919050565b60008115159050919050565b600061199382611958565b9050919050565b600073ffffffffffffffffffffffffffffffffffffffff82169050919050565b6000819050919050565b60006119cf826119d6565b9050919050565b60006119e18261199a565b9050919050565b82818337600083830152505050565b60005b83811015611a155780820151818401526020810190506119fa565b83811115611a24576000848401525b50505050565b60006002820490506001821680611a4257607f821691505b60208210811415611a5657611a55611b34565b5b50919050565b611a6582611b92565b810181811067ffffffffffffffff82111715611a8457611a83611b63565b5b80604052505050565b6000611a98826119ba565b91507fffffffffffffffffffffffffffffffffffffffffffffffffffffffffffffffff821415611acb57611aca611ad6565b5b600182019050919050565b7f4e487b7100000000000000000000000000000000000000000000000000000000600052601160045260246000fd5b7f4e487b7100000000000000000000000000000000000000000000000000000000600052601260045260246000fd5b7f4e487b7100000000000000000000000000000000000000000000000000000000600052602260045260246000fd5b7f4e487b7100000000000000000000000000000000000000000000000000000000600052604160045260246000fd5b6000601f19601f8301169050919050565b7f6974656d20616c726561647920736f6c64000000000000000000000000000000600082015250565b7f5072696365206d7573742062652067726561746572207468616e207a65726f00600082015250565b7f6e6f7420656e6f75676820657468657220746f20636f766572206974656d207060008201527f7269636520616e64206d61726b65742066656500000000000000000000000000602082015250565b7f6974656d20646f65736e27742065786973740000000000000000000000000000600082015250565b7f5265656e7472616e637947756172643a207265656e7472616e742063616c6c00600082015250565b611c9f81611958565b8114611caa57600080fd5b50565b611cb681611988565b8114611cc157600080fd5b50565b611ccd816119ba565b8114611cd857600080fd5b5056fea2646970667358221220f9c0335748342d7292f6b045a2e3330826b4f31086ed1190c6ad7698b020dff864736f6c63430008040033",
  "linkReferences": {},
  "deployedLinkReferences": {}
}